{
    "_format": "hh-sol-artifact-1",
    "contractName": "AnchorContract",
    "sourceName": "contracts/AnchorContract.sol",
    "abi": [
        {
            "inputs": [],
            "stateMutability": "nonpayable",
            "type": "constructor"
        },
        {
            "anonymous": false,
            "inputs": [
                {
                    "indexed": true,
                    "internalType": "uint256",
                    "name": "ID",
                    "type": "uint256"
                },
                {
                    "indexed": true,
                    "internalType": "string",
                    "name": "DID",
                    "type": "string"
                },
                {
                    "indexed": false,
                    "internalType": "string",
                    "name": "VCid",
                    "type": "string"
                }
            ],
            "name": "DIDCardAdded",
            "type": "event"
        },
        {
            "anonymous": false,
            "inputs": [
                {
                    "indexed": true,
                    "internalType": "uint256",
                    "name": "ID",
                    "type": "uint256"
                },
                {
                    "indexed": true,
                    "internalType": "string",
                    "name": "DID",
                    "type": "string"
                }
            ],
            "name": "DIDDeleted",
            "type": "event"
        },
        {
            "inputs": [
                {
                    "internalType": "string",
                    "name": "_DID",
                    "type": "string"
                },
                {
                    "internalType": "string",
                    "name": "_VCid",
                    "type": "string"
                }
            ],
            "name": "addDID",
            "outputs": [
                {
                    "internalType": "bool",
                    "name": "",
                    "type": "bool"
                }
            ],
            "stateMutability": "nonpayable",
            "type": "function"
        },
        {
            "inputs": [
                {
                    "internalType": "uint256",
                    "name": "",
                    "type": "uint256"
                }
            ],
            "name": "didCards",
            "outputs": [
                {
                    "internalType": "uint256",
                    "name": "ID",
                    "type": "uint256"
                },
                {
                    "internalType": "string",
                    "name": "DID",
                    "type": "string"
                },
                {
                    "internalType": "string",
                    "name": "VCid",
                    "type": "string"
                },
                {
                    "internalType": "bool",
                    "name": "exists",
                    "type": "bool"
                }
            ],
            "stateMutability": "view",
            "type": "function"
        },
        {
            "inputs": [
                {
                    "internalType": "uint256",
                    "name": "",
                    "type": "uint256"
                }
            ],
            "name": "didObject",
            "outputs": [
                {
                    "internalType": "uint256",
                    "name": "ID",
                    "type": "uint256"
                },
                {
                    "internalType": "string",
                    "name": "DID",
                    "type": "string"
                },
                {
                    "internalType": "string",
                    "name": "VCid",
                    "type": "string"
                },
                {
                    "internalType": "bool",
                    "name": "exists",
                    "type": "bool"
                }
            ],
            "stateMutability": "view",
            "type": "function"
        },
        {
            "inputs": [
                {
                    "internalType": "string",
                    "name": "",
                    "type": "string"
                }
            ],
            "name": "didToId",
            "outputs": [
                {
                    "internalType": "uint256",
                    "name": "",
                    "type": "uint256"
                }
            ],
            "stateMutability": "view",
            "type": "function"
        },
        {
            "inputs": [
                {
                    "internalType": "string",
                    "name": "_DID",
                    "type": "string"
                }
            ],
            "name": "doesDIDExist",
            "outputs": [
                {
                    "internalType": "bool",
                    "name": "",
                    "type": "bool"
                }
            ],
            "stateMutability": "view",
            "type": "function"
        },
        {
            "inputs": [],
            "name": "getAllDIDs",
            "outputs": [
                {
                    "components": [
                        {
                            "internalType": "uint256",
                            "name": "ID",
                            "type": "uint256"
                        },
                        {
                            "internalType": "string",
                            "name": "DID",
                            "type": "string"
                        },
                        {
                            "internalType": "string",
                            "name": "VCid",
                            "type": "string"
                        },
                        {
                            "internalType": "bool",
                            "name": "exists",
                            "type": "bool"
                        }
                    ],
                    "internalType": "struct AnchorContract.DIDCard[]",
                    "name": "",
                    "type": "tuple[]"
                }
            ],
            "stateMutability": "view",
            "type": "function"
        },
        {
            "inputs": [
                {
                    "internalType": "string",
                    "name": "_DID",
                    "type": "string"
                }
            ],
            "name": "getDID",
            "outputs": [
                {
                    "components": [
                        {
                            "internalType": "uint256",
                            "name": "ID",
                            "type": "uint256"
                        },
                        {
                            "internalType": "string",
                            "name": "DID",
                            "type": "string"
                        },
                        {
                            "internalType": "string",
                            "name": "VCid",
                            "type": "string"
                        },
                        {
                            "internalType": "bool",
                            "name": "exists",
                            "type": "bool"
                        }
                    ],
                    "internalType": "struct AnchorContract.DIDCard",
                    "name": "",
                    "type": "tuple"
                }
            ],
            "stateMutability": "view",
            "type": "function"
        },
        {
            "inputs": [],
            "name": "getDIDCount",
            "outputs": [
                {
                    "internalType": "uint256",
                    "name": "",
                    "type": "uint256"
                }
            ],
            "stateMutability": "view",
            "type": "function"
        },
        {
            "inputs": [
                {
                    "internalType": "string",
                    "name": "_DID",
                    "type": "string"
                }
            ],
            "name": "removeDID",
            "outputs": [
                {
                    "internalType": "bool",
                    "name": "",
                    "type": "bool"
                }
            ],
            "stateMutability": "nonpayable",
            "type": "function"
        }
    ],
    "bytecode": "0x6080604052348015600f57600080fd5b506001600081905550611ac6806100276000396000f3fe608060405234801561001057600080fd5b50600436106100935760003560e01c806356920b021161006657806356920b02146101495780638cf592d61461017c578063dd742fa51461019a578063e0783898146101ca578063ea95901d146101fa57610093565b80631d3d595614610098578063261321a7146100c8578063376e0101146100fb5780634c95303a1461012b575b600080fd5b6100b260048036038101906100ad9190610fc6565b61022a565b6040516100bf9190611028565b60405180910390f35b6100e260048036038101906100dd919061106f565b610258565b6040516100f29493929190611136565b60405180910390f35b61011560048036038101906101109190610fc6565b6103b5565b6040516101229190611189565b60405180910390f35b6101336106c6565b6040516101409190611338565b60405180910390f35b610163600480360381019061015e919061106f565b61086e565b6040516101739493929190611136565b60405180910390f35b6101846109bb565b6040516101919190611028565b60405180910390f35b6101b460048036038101906101af9190610fc6565b6109c8565b6040516101c19190611189565b60405180910390f35b6101e460048036038101906101df9190610fc6565b6109f3565b6040516101f191906113c4565b60405180910390f35b610214600480360381019061020f91906113e6565b610bd0565b6040516102219190611189565b60405180910390f35b6003818051602081018201805184825260208301602085012081835280955050505050506000915090505481565b6001818154811061026857600080fd5b90600052602060002090600402016000915090508060000154908060010180546102919061148d565b80601f01602080910402602001604051908101604052809291908181526020018280546102bd9061148d565b801561030a5780601f106102df5761010080835404028352916020019161030a565b820191906000526020600020905b8154815290600101906020018083116102ed57829003601f168201915b50505050509080600201805461031f9061148d565b80601f016020809104026020016040519081016040528092919081815260200182805461034b9061148d565b80156103985780601f1061036d57610100808354040283529160200191610398565b820191906000526020600020905b81548152906001019060200180831161037b57829003601f168201915b5050505050908060030160009054906101000a900460ff16905084565b6000806003836040516103c891906114fa565b90815260200160405180910390205490506000810361041c576040517f08c379a00000000000000000000000000000000000000000000000000000000081526004016104139061155d565b60405180910390fd5b6002600082815260200190815260200160002060030160009054906101000a900460ff1661047f576040517f08c379a00000000000000000000000000000000000000000000000000000000081526004016104769061155d565b60405180910390fd5b60005b6001805490508110156106045781600182815481106104a4576104a361157d565b5b906000526020600020906004020160000154036105f757600180805490506104cc91906115db565b81101561058b5760018080805490506104e591906115db565b815481106104f6576104f561157d565b5b9060005260206000209060040201600182815481106105185761051761157d565b5b9060005260206000209060040201600082015481600001556001820181600101908161054491906117d1565b506002820181600201908161055991906117d1565b506003820160009054906101000a900460ff168160030160006101000a81548160ff0219169083151502179055509050505b600180548061059d5761059c6118b9565b5b60019003818190600052602060002090600402016000808201600090556001820160006105ca9190610de5565b6002820160006105da9190610de5565b6003820160006101000a81549060ff021916905550509055610604565b8080600101915050610482565b50600260008281526020019081526020016000206000808201600090556001820160006106319190610de5565b6002820160006106419190610de5565b6003820160006101000a81549060ff0219169055505060038360405161066791906114fa565b9081526020016040518091039020600090558260405161068791906114fa565b6040518091039020817f1c052a1a2ac10d8e61b1f605ffb905f3b7d7b2f9fccf244c2df8b365f37be8cc60405160405180910390a36001915050919050565b60606001805480602002602001604051908101604052809291908181526020016000905b828210156108655783829060005260206000209060040201604051806080016040529081600082015481526020016001820180546107279061148d565b80601f01602080910402602001604051908101604052809291908181526020018280546107539061148d565b80156107a05780601f10610775576101008083540402835291602001916107a0565b820191906000526020600020905b81548152906001019060200180831161078357829003601f168201915b505050505081526020016002820180546107b99061148d565b80601f01602080910402602001604051908101604052809291908181526020018280546107e59061148d565b80156108325780601f1061080757610100808354040283529160200191610832565b820191906000526020600020905b81548152906001019060200180831161081557829003601f168201915b505050505081526020016003820160009054906101000a900460ff161515151581525050815260200190600101906106ea565b50505050905090565b60026020528060005260406000206000915090508060000154908060010180546108979061148d565b80601f01602080910402602001604051908101604052809291908181526020018280546108c39061148d565b80156109105780601f106108e557610100808354040283529160200191610910565b820191906000526020600020905b8154815290600101906020018083116108f357829003601f168201915b5050505050908060020180546109259061148d565b80601f01602080910402602001604051908101604052809291908181526020018280546109519061148d565b801561099e5780601f106109735761010080835404028352916020019161099e565b820191906000526020600020905b81548152906001019060200180831161098157829003601f168201915b5050505050908060030160009054906101000a900460ff16905084565b6000600180549050905090565b6000806003836040516109db91906114fa565b90815260200160405180910390205414159050919050565b6109fb610e25565b6000600383604051610a0d91906114fa565b908152602001604051809103902054905060008103610a61576040517f08c379a0000000000000000000000000000000000000000000000000000000008152600401610a589061155d565b60405180910390fd5b6002600082815260200190815260200160002060405180608001604052908160008201548152602001600182018054610a999061148d565b80601f0160208091040260200160405190810160405280929190818152602001828054610ac59061148d565b8015610b125780601f10610ae757610100808354040283529160200191610b12565b820191906000526020600020905b815481529060010190602001808311610af557829003601f168201915b50505050508152602001600282018054610b2b9061148d565b80601f0160208091040260200160405190810160405280929190818152602001828054610b579061148d565b8015610ba45780601f10610b7957610100808354040283529160200191610ba4565b820191906000526020600020905b815481529060010190602001808311610b8757829003601f168201915b505050505081526020016003820160009054906101000a900460ff161515151581525050915050919050565b600080600384604051610be391906114fa565b90815260200160405180910390205414610c32576040517f08c379a0000000000000000000000000000000000000000000000000000000008152600401610c2990611934565b60405180910390fd5b6000604051806080016040528060005481526020018581526020018481526020016001151581525090506001819080600181540180825580915050600190039060005260206000209060040201600090919091909150600082015181600001556020820151816001019081610ca79190611954565b506040820151816002019081610cbd9190611954565b5060608201518160030160006101000a81548160ff0219169083151502179055505050806002600080548152602001908152602001600020600082015181600001556020820151816001019081610d149190611954565b506040820151816002019081610d2a9190611954565b5060608201518160030160006101000a81548160ff021916908315150217905550905050600054600385604051610d6191906114fa565b90815260200160405180910390208190555083604051610d8191906114fa565b60405180910390206000547f7820acaceb7701c40adb91ee097161bb0cad0bc29f4c9acb9c3b471b5e4063eb85604051610dbb9190611a26565b60405180910390a3600080815480929190610dd590611a48565b9190505550600191505092915050565b508054610df19061148d565b6000825580601f10610e035750610e22565b601f016020900490600052602060002090810190610e219190610e4f565b5b50565b60405180608001604052806000815260200160608152602001606081526020016000151581525090565b5b80821115610e68576000816000905550600101610e50565b5090565b6000604051905090565b600080fd5b600080fd5b600080fd5b600080fd5b6000601f19601f8301169050919050565b7f4e487b7100000000000000000000000000000000000000000000000000000000600052604160045260246000fd5b610ed382610e8a565b810181811067ffffffffffffffff82111715610ef257610ef1610e9b565b5b80604052505050565b6000610f05610e6c565b9050610f118282610eca565b919050565b600067ffffffffffffffff821115610f3157610f30610e9b565b5b610f3a82610e8a565b9050602081019050919050565b82818337600083830152505050565b6000610f69610f6484610f16565b610efb565b905082815260208101848484011115610f8557610f84610e85565b5b610f90848285610f47565b509392505050565b600082601f830112610fad57610fac610e80565b5b8135610fbd848260208601610f56565b91505092915050565b600060208284031215610fdc57610fdb610e76565b5b600082013567ffffffffffffffff811115610ffa57610ff9610e7b565b5b61100684828501610f98565b91505092915050565b6000819050919050565b6110228161100f565b82525050565b600060208201905061103d6000830184611019565b92915050565b61104c8161100f565b811461105757600080fd5b50565b60008135905061106981611043565b92915050565b60006020828403121561108557611084610e76565b5b60006110938482850161105a565b91505092915050565b600081519050919050565b600082825260208201905092915050565b60005b838110156110d65780820151818401526020810190506110bb565b60008484015250505050565b60006110ed8261109c565b6110f781856110a7565b93506111078185602086016110b8565b61111081610e8a565b840191505092915050565b60008115159050919050565b6111308161111b565b82525050565b600060808201905061114b6000830187611019565b818103602083015261115d81866110e2565b9050818103604083015261117181856110e2565b90506111806060830184611127565b95945050505050565b600060208201905061119e6000830184611127565b92915050565b600081519050919050565b600082825260208201905092915050565b6000819050602082019050919050565b6111d98161100f565b82525050565b600082825260208201905092915050565b60006111fb8261109c565b61120581856111df565b93506112158185602086016110b8565b61121e81610e8a565b840191505092915050565b6112328161111b565b82525050565b600060808301600083015161125060008601826111d0565b506020830151848203602086015261126882826111f0565b9150506040830151848203604086015261128282826111f0565b91505060608301516112976060860182611229565b508091505092915050565b60006112ae8383611238565b905092915050565b6000602082019050919050565b60006112ce826111a4565b6112d881856111af565b9350836020820285016112ea856111c0565b8060005b85811015611326578484038952815161130785826112a2565b9450611312836112b6565b925060208a019950506001810190506112ee565b50829750879550505050505092915050565b6000602082019050818103600083015261135281846112c3565b905092915050565b600060808301600083015161137260008601826111d0565b506020830151848203602086015261138a82826111f0565b915050604083015184820360408601526113a482826111f0565b91505060608301516113b96060860182611229565b508091505092915050565b600060208201905081810360008301526113de818461135a565b905092915050565b600080604083850312156113fd576113fc610e76565b5b600083013567ffffffffffffffff81111561141b5761141a610e7b565b5b61142785828601610f98565b925050602083013567ffffffffffffffff81111561144857611447610e7b565b5b61145485828601610f98565b9150509250929050565b7f4e487b7100000000000000000000000000000000000000000000000000000000600052602260045260246000fd5b600060028204905060018216806114a557607f821691505b6020821081036114b8576114b761145e565b5b50919050565b600081905092915050565b60006114d48261109c565b6114de81856114be565b93506114ee8185602086016110b8565b80840191505092915050565b600061150682846114c9565b915081905092915050565b7f44494420646f65736e2774206578697374210000000000000000000000000000600082015250565b60006115476012836110a7565b915061155282611511565b602082019050919050565b600060208201905081810360008301526115768161153a565b9050919050565b7f4e487b7100000000000000000000000000000000000000000000000000000000600052603260045260246000fd5b7f4e487b7100000000000000000000000000000000000000000000000000000000600052601160045260246000fd5b60006115e68261100f565b91506115f18361100f565b9250828203905081811115611609576116086115ac565b5b92915050565b60008154905061161e8161148d565b9050919050565b60008190508160005260206000209050919050565b60006020601f8301049050919050565b600082821b905092915050565b6000600883026116877fffffffffffffffffffffffffffffffffffffffffffffffffffffffffffffffff8261164a565b611691868361164a565b95508019841693508086168417925050509392505050565b6000819050919050565b60006116ce6116c96116c48461100f565b6116a9565b61100f565b9050919050565b6000819050919050565b6116e8836116b3565b6116fc6116f4826116d5565b848454611657565b825550505050565b600090565b611711611704565b61171c8184846116df565b505050565b5b8181101561174057611735600082611709565b600181019050611722565b5050565b601f8211156117855761175681611625565b61175f8461163a565b8101602085101561176e578190505b61178261177a8561163a565b830182611721565b50505b505050565b600082821c905092915050565b60006117a86000198460080261178a565b1980831691505092915050565b60006117c18383611797565b9150826002028217905092915050565b8181036117df5750506118b7565b6117e88261160f565b67ffffffffffffffff81111561180157611800610e9b565b5b61180b825461148d565b611816828285611744565b6000601f8311600181146118455760008415611833578287015490505b61183d85826117b5565b8655506118b0565b601f19841661185387611625565b965061185e86611625565b60005b8281101561188657848901548255600182019150600185019450602081019050611861565b868310156118a3578489015461189f601f891682611797565b8355505b6001600288020188555050505b5050505050505b565b7f4e487b7100000000000000000000000000000000000000000000000000000000600052603160045260246000fd5b7f44494420616c7265616479206164646564210000000000000000000000000000600082015250565b600061191e6012836110a7565b9150611929826118e8565b602082019050919050565b6000602082019050818103600083015261194d81611911565b9050919050565b61195d8261109c565b67ffffffffffffffff81111561197657611975610e9b565b5b611980825461148d565b61198b828285611744565b600060209050601f8311600181146119be57600084156119ac578287015190505b6119b685826117b5565b865550611a1e565b601f1984166119cc86611625565b60005b828110156119f4578489015182556001820191506020850194506020810190506119cf565b86831015611a115784890151611a0d601f891682611797565b8355505b6001600288020188555050505b505050505050565b60006020820190508181036000830152611a4081846110e2565b905092915050565b6000611a538261100f565b91507fffffffffffffffffffffffffffffffffffffffffffffffffffffffffffffffff8203611a8557611a846115ac565b5b60018201905091905056fea26469706673582212207794226cc2db4c05913088a78c5eee12d9745f2b0d55326f77e9866b306c747364736f6c634300081b0033",
    "linkReferences": {},
    "deployedLinkReferences": {}
}