{
    "_format": "hh-sol-artifact-1",
    "contractName": "UniversityVC",
    "sourceName": "contracts/EthrRegistry.sol",
    "abi": [
        {
            "inputs": [
                {
                    "internalType": "string",
                    "name": "_issuerDID",
                    "type": "string"
                }
            ],
            "stateMutability": "nonpayable",
            "type": "constructor"
        },
        {
            "anonymous": false,
            "inputs": [
                {
                    "indexed": true,
                    "internalType": "uint256",
                    "name": "id",
                    "type": "uint256"
                },
                {
                    "indexed": false,
                    "internalType": "string",
                    "name": "studentDID",
                    "type": "string"
                },
                {
                    "indexed": false,
                    "internalType": "string",
                    "name": "credentialType",
                    "type": "string"
                },
                {
                    "indexed": false,
                    "internalType": "uint256",
                    "name": "issueDate",
                    "type": "uint256"
                },
                {
                    "indexed": false,
                    "internalType": "string",
                    "name": "credentialHash",
                    "type": "string"
                },
                {
                    "indexed": false,
                    "internalType": "string",
                    "name": "signature",
                    "type": "string"
                },
                {
                    "indexed": false,
                    "internalType": "string",
                    "name": "mappingCID",
                    "type": "string"
                }
            ],
            "name": "CredentialIssued",
            "type": "event"
        },
        {
            "anonymous": false,
            "inputs": [
                {
                    "indexed": true,
                    "internalType": "uint256",
                    "name": "id",
                    "type": "uint256"
                }
            ],
            "name": "CredentialRevoked",
            "type": "event"
        },
        {
            "inputs": [],
            "name": "credentialCount",
            "outputs": [
                {
                    "internalType": "uint256",
                    "name": "",
                    "type": "uint256"
                }
            ],
            "stateMutability": "view",
            "type": "function"
        },
        {
            "inputs": [
                {
                    "internalType": "uint256",
                    "name": "",
                    "type": "uint256"
                }
            ],
            "name": "credentials",
            "outputs": [
                {
                    "internalType": "uint256",
                    "name": "id",
                    "type": "uint256"
                },
                {
                    "internalType": "string",
                    "name": "studentDID",
                    "type": "string"
                },
                {
                    "internalType": "string",
                    "name": "issuerDID",
                    "type": "string"
                },
                {
                    "internalType": "string",
                    "name": "credentialType",
                    "type": "string"
                },
                {
                    "internalType": "uint256",
                    "name": "issueDate",
                    "type": "uint256"
                },
                {
                    "internalType": "string",
                    "name": "metadata",
                    "type": "string"
                },
                {
                    "internalType": "string",
                    "name": "credentialHash",
                    "type": "string"
                },
                {
                    "internalType": "string",
                    "name": "signature",
                    "type": "string"
                },
                {
                    "internalType": "string",
                    "name": "mappingCID",
                    "type": "string"
                },
                {
                    "internalType": "bool",
                    "name": "valid",
                    "type": "bool"
                }
            ],
            "stateMutability": "view",
            "type": "function"
        },
        {
            "inputs": [
                {
                    "internalType": "string",
                    "name": "studentDID",
                    "type": "string"
                }
            ],
            "name": "getCredentialsForStudent",
            "outputs": [
                {
                    "internalType": "uint256[]",
                    "name": "",
                    "type": "uint256[]"
                }
            ],
            "stateMutability": "view",
            "type": "function"
        },
        {
            "inputs": [
                {
                    "internalType": "string",
                    "name": "studentDID",
                    "type": "string"
                },
                {
                    "internalType": "string",
                    "name": "credentialType",
                    "type": "string"
                },
                {
                    "internalType": "string",
                    "name": "metadata",
                    "type": "string"
                },
                {
                    "internalType": "string",
                    "name": "credentialHash",
                    "type": "string"
                },
                {
                    "internalType": "string",
                    "name": "signature",
                    "type": "string"
                },
                {
                    "internalType": "string",
                    "name": "mappingCID",
                    "type": "string"
                }
            ],
            "name": "issueCredential",
            "outputs": [],
            "stateMutability": "nonpayable",
            "type": "function"
        },
        {
            "inputs": [],
            "name": "issuer",
            "outputs": [
                {
                    "internalType": "address",
                    "name": "",
                    "type": "address"
                }
            ],
            "stateMutability": "view",
            "type": "function"
        },
        {
            "inputs": [],
            "name": "issuerDID",
            "outputs": [
                {
                    "internalType": "string",
                    "name": "",
                    "type": "string"
                }
            ],
            "stateMutability": "view",
            "type": "function"
        },
        {
            "inputs": [
                {
                    "internalType": "uint256",
                    "name": "id",
                    "type": "uint256"
                }
            ],
            "name": "revokeCredential",
            "outputs": [],
            "stateMutability": "nonpayable",
            "type": "function"
        },
        {
            "inputs": [
                {
                    "internalType": "uint256",
                    "name": "id",
                    "type": "uint256"
                },
                {
                    "internalType": "string",
                    "name": "credentialHash",
                    "type": "string"
                }
            ],
            "name": "verifyCredential",
            "outputs": [
                {
                    "internalType": "bool",
                    "name": "",
                    "type": "bool"
                }
            ],
            "stateMutability": "view",
            "type": "function"
        }
    ],
    "bytecode": "0x608060405234801561001057600080fd5b50604051611f5d380380611f5d833981810160405281019061003291906101fd565b336000806101000a81548173ffffffffffffffffffffffffffffffffffffffff021916908373ffffffffffffffffffffffffffffffffffffffff16021790555080600190816100819190610467565b5050610539565b6000604051905090565b600080fd5b600080fd5b600080fd5b600080fd5b6000601f19601f8301169050919050565b7f4e487b7100000000000000000000000000000000000000000000000000000000600052604160045260246000fd5b6100ef826100a6565b810181811067ffffffffffffffff8211171561010e5761010d6100b7565b5b80604052505050565b6000610121610088565b905061012d82826100e6565b919050565b600067ffffffffffffffff82111561014d5761014c6100b7565b5b610156826100a6565b9050602081019050919050565b60005b83811015610181578082015181840152602081019050610166565b60008484015250505050565b60006101a061019b84610132565b610117565b9050828152602081018484840111156101bc576101bb6100a1565b5b6101c7848285610163565b509392505050565b600082601f8301126101e4576101e361009c565b5b81516101f484826020860161018d565b91505092915050565b60006020828403121561021357610212610092565b5b600082015167ffffffffffffffff81111561023157610230610097565b5b61023d848285016101cf565b91505092915050565b600081519050919050565b7f4e487b7100000000000000000000000000000000000000000000000000000000600052602260045260246000fd5b6000600282049050600182168061029857607f821691505b6020821081036102ab576102aa610251565b5b50919050565b60008190508160005260206000209050919050565b60006020601f8301049050919050565b600082821b905092915050565b6000600883026103137fffffffffffffffffffffffffffffffffffffffffffffffffffffffffffffffff826102d6565b61031d86836102d6565b95508019841693508086168417925050509392505050565b6000819050919050565b6000819050919050565b600061036461035f61035a84610335565b61033f565b610335565b9050919050565b6000819050919050565b61037e83610349565b61039261038a8261036b565b8484546102e3565b825550505050565b600090565b6103a761039a565b6103b2818484610375565b505050565b5b818110156103d6576103cb60008261039f565b6001810190506103b8565b5050565b601f82111561041b576103ec816102b1565b6103f5846102c6565b81016020851015610404578190505b610418610410856102c6565b8301826103b7565b50505b505050565b600082821c905092915050565b600061043e60001984600802610420565b1980831691505092915050565b6000610457838361042d565b9150826002028217905092915050565b61047082610246565b67ffffffffffffffff811115610489576104886100b7565b5b6104938254610280565b61049e8282856103da565b600060209050601f8311600181146104d157600084156104bf578287015190505b6104c9858261044b565b865550610531565b601f1984166104df866102b1565b60005b82811015610507578489015182556001820191506020850194506020810190506104e2565b868310156105245784890151610520601f89168261042d565b8355505b6001600288020188555050505b505050505050565b611a15806105486000396000f3fe608060405234801561001057600080fd5b50600436106100885760003560e01c8063896da1f71161005b578063896da1f714610113578063cd0e35b914610143578063e0574e3f14610161578063e062449f1461019a57610088565b8063054b23871461008d5780631b87278d146100a95780631d143848146100c5578063890d42df146100e3575b600080fd5b6100a760048036038101906100a29190611000565b6101b8565b005b6100c360048036038101906100be919061116b565b610420565b005b6100cd6104e2565b6040516100da91906111d9565b60405180910390f35b6100fd60048036038101906100f891906111f4565b610506565b60405161010a91906112fb565b60405180910390f35b61012d6004803603810190610128919061131d565b61057c565b60405161013a9190611394565b60405180910390f35b61014b6109f9565b60405161015891906113be565b60405180910390f35b61017b6004803603810190610176919061116b565b6109ff565b6040516101919a99989796959493929190611458565b60405180910390f35b6101a2610e18565b6040516101af9190611525565b60405180910390f35b600260008154809291906101cb90611576565b91905055506040518061014001604052806002548152602001878152602001600180546101f7906115ed565b80601f0160208091040260200160405190810160405280929190818152602001828054610223906115ed565b80156102705780601f1061024557610100808354040283529160200191610270565b820191906000526020600020905b81548152906001019060200180831161025357829003601f168201915b50505050508152602001868152602001428152602001858152602001848152602001838152602001828152602001600115158152506003600060025481526020019081526020016000206000820151816000015560208201518160010190816102d991906117ca565b5060408201518160020190816102ef91906117ca565b50606082015181600301908161030591906117ca565b506080820151816004015560a082015181600501908161032591906117ca565b5060c082015181600601908161033b91906117ca565b5060e082015181600701908161035191906117ca565b5061010082015181600801908161036891906117ca565b506101208201518160090160006101000a81548160ff02191690831515021790555090505060048660405161039d91906118d8565b908152602001604051809103902060025490806001815401808255809150506001900390600052602060002001600090919091909150556002547fc8633d7770b04743f2aa51abd8d5914c49b8827faaf30176890aa602cec7c670878742878787604051610410969594939291906118ef565b60405180910390a2505050505050565b6003600082815260200190815260200160002060090160009054906101000a900460ff16610483576040517f08c379a000000000000000000000000000000000000000000000000000000000815260040161047a906119bf565b60405180910390fd5b60006003600083815260200190815260200160002060090160006101000a81548160ff021916908315150217905550807f0d47d5695004d2a4180ebb40037756439184993a0d1c6d4a8ff3a6aa9325607460405160405180910390a250565b60008054906101000a900473ffffffffffffffffffffffffffffffffffffffff1681565b606060048260405161051891906118d8565b908152602001604051809103902080548060200260200160405190810160405280929190818152602001828054801561057057602002820191906000526020600020905b81548152602001906001019080831161055c575b50505050509050919050565b6000806003600085815260200190815260200160002060405180610140016040529081600082015481526020016001820180546105b8906115ed565b80601f01602080910402602001604051908101604052809291908181526020018280546105e4906115ed565b80156106315780601f1061060657610100808354040283529160200191610631565b820191906000526020600020905b81548152906001019060200180831161061457829003601f168201915b5050505050815260200160028201805461064a906115ed565b80601f0160208091040260200160405190810160405280929190818152602001828054610676906115ed565b80156106c35780601f10610698576101008083540402835291602001916106c3565b820191906000526020600020905b8154815290600101906020018083116106a657829003601f168201915b505050505081526020016003820180546106dc906115ed565b80601f0160208091040260200160405190810160405280929190818152602001828054610708906115ed565b80156107555780601f1061072a57610100808354040283529160200191610755565b820191906000526020600020905b81548152906001019060200180831161073857829003601f168201915b5050505050815260200160048201548152602001600582018054610778906115ed565b80601f01602080910402602001604051908101604052809291908181526020018280546107a4906115ed565b80156107f15780601f106107c6576101008083540402835291602001916107f1565b820191906000526020600020905b8154815290600101906020018083116107d457829003601f168201915b5050505050815260200160068201805461080a906115ed565b80601f0160208091040260200160405190810160405280929190818152602001828054610836906115ed565b80156108835780601f1061085857610100808354040283529160200191610883565b820191906000526020600020905b81548152906001019060200180831161086657829003601f168201915b5050505050815260200160078201805461089c906115ed565b80601f01602080910402602001604051908101604052809291908181526020018280546108c8906115ed565b80156109155780601f106108ea57610100808354040283529160200191610915565b820191906000526020600020905b8154815290600101906020018083116108f857829003601f168201915b5050505050815260200160088201805461092e906115ed565b80601f016020809104026020016040519081016040528092919081815260200182805461095a906115ed565b80156109a75780601f1061097c576101008083540402835291602001916109a7565b820191906000526020600020905b81548152906001019060200180831161098a57829003601f168201915b505050505081526020016009820160009054906101000a900460ff161515151581525050905080610120015180156109f0575082805190602001208160c0015180519060200120145b91505092915050565b60025481565b6003602052806000526040600020600091509050806000015490806001018054610a28906115ed565b80601f0160208091040260200160405190810160405280929190818152602001828054610a54906115ed565b8015610aa15780601f10610a7657610100808354040283529160200191610aa1565b820191906000526020600020905b815481529060010190602001808311610a8457829003601f168201915b505050505090806002018054610ab6906115ed565b80601f0160208091040260200160405190810160405280929190818152602001828054610ae2906115ed565b8015610b2f5780601f10610b0457610100808354040283529160200191610b2f565b820191906000526020600020905b815481529060010190602001808311610b1257829003601f168201915b505050505090806003018054610b44906115ed565b80601f0160208091040260200160405190810160405280929190818152602001828054610b70906115ed565b8015610bbd5780601f10610b9257610100808354040283529160200191610bbd565b820191906000526020600020905b815481529060010190602001808311610ba057829003601f168201915b505050505090806004015490806005018054610bd8906115ed565b80601f0160208091040260200160405190810160405280929190818152602001828054610c04906115ed565b8015610c515780601f10610c2657610100808354040283529160200191610c51565b820191906000526020600020905b815481529060010190602001808311610c3457829003601f168201915b505050505090806006018054610c66906115ed565b80601f0160208091040260200160405190810160405280929190818152602001828054610c92906115ed565b8015610cdf5780601f10610cb457610100808354040283529160200191610cdf565b820191906000526020600020905b815481529060010190602001808311610cc257829003601f168201915b505050505090806007018054610cf4906115ed565b80601f0160208091040260200160405190810160405280929190818152602001828054610d20906115ed565b8015610d6d5780601f10610d4257610100808354040283529160200191610d6d565b820191906000526020600020905b815481529060010190602001808311610d5057829003601f168201915b505050505090806008018054610d82906115ed565b80601f0160208091040260200160405190810160405280929190818152602001828054610dae906115ed565b8015610dfb5780601f10610dd057610100808354040283529160200191610dfb565b820191906000526020600020905b815481529060010190602001808311610dde57829003601f168201915b5050505050908060090160009054906101000a900460ff1690508a565b60018054610e25906115ed565b80601f0160208091040260200160405190810160405280929190818152602001828054610e51906115ed565b8015610e9e5780601f10610e7357610100808354040283529160200191610e9e565b820191906000526020600020905b815481529060010190602001808311610e8157829003601f168201915b505050505081565b6000604051905090565b600080fd5b600080fd5b600080fd5b600080fd5b6000601f19601f8301169050919050565b7f4e487b7100000000000000000000000000000000000000000000000000000000600052604160045260246000fd5b610f0d82610ec4565b810181811067ffffffffffffffff82111715610f2c57610f2b610ed5565b5b80604052505050565b6000610f3f610ea6565b9050610f4b8282610f04565b919050565b600067ffffffffffffffff821115610f6b57610f6a610ed5565b5b610f7482610ec4565b9050602081019050919050565b82818337600083830152505050565b6000610fa3610f9e84610f50565b610f35565b905082815260208101848484011115610fbf57610fbe610ebf565b5b610fca848285610f81565b509392505050565b600082601f830112610fe757610fe6610eba565b5b8135610ff7848260208601610f90565b91505092915050565b60008060008060008060c0878903121561101d5761101c610eb0565b5b600087013567ffffffffffffffff81111561103b5761103a610eb5565b5b61104789828a01610fd2565b965050602087013567ffffffffffffffff81111561106857611067610eb5565b5b61107489828a01610fd2565b955050604087013567ffffffffffffffff81111561109557611094610eb5565b5b6110a189828a01610fd2565b945050606087013567ffffffffffffffff8111156110c2576110c1610eb5565b5b6110ce89828a01610fd2565b935050608087013567ffffffffffffffff8111156110ef576110ee610eb5565b5b6110fb89828a01610fd2565b92505060a087013567ffffffffffffffff81111561111c5761111b610eb5565b5b61112889828a01610fd2565b9150509295509295509295565b6000819050919050565b61114881611135565b811461115357600080fd5b50565b6000813590506111658161113f565b92915050565b60006020828403121561118157611180610eb0565b5b600061118f84828501611156565b91505092915050565b600073ffffffffffffffffffffffffffffffffffffffff82169050919050565b60006111c382611198565b9050919050565b6111d3816111b8565b82525050565b60006020820190506111ee60008301846111ca565b92915050565b60006020828403121561120a57611209610eb0565b5b600082013567ffffffffffffffff81111561122857611227610eb5565b5b61123484828501610fd2565b91505092915050565b600081519050919050565b600082825260208201905092915050565b6000819050602082019050919050565b61127281611135565b82525050565b60006112848383611269565b60208301905092915050565b6000602082019050919050565b60006112a88261123d565b6112b28185611248565b93506112bd83611259565b8060005b838110156112ee5781516112d58882611278565b97506112e083611290565b9250506001810190506112c1565b5085935050505092915050565b60006020820190508181036000830152611315818461129d565b905092915050565b6000806040838503121561133457611333610eb0565b5b600061134285828601611156565b925050602083013567ffffffffffffffff81111561136357611362610eb5565b5b61136f85828601610fd2565b9150509250929050565b60008115159050919050565b61138e81611379565b82525050565b60006020820190506113a96000830184611385565b92915050565b6113b881611135565b82525050565b60006020820190506113d360008301846113af565b92915050565b600081519050919050565b600082825260208201905092915050565b60005b838110156114135780820151818401526020810190506113f8565b60008484015250505050565b600061142a826113d9565b61143481856113e4565b93506114448185602086016113f5565b61144d81610ec4565b840191505092915050565b60006101408201905061146e600083018d6113af565b8181036020830152611480818c61141f565b90508181036040830152611494818b61141f565b905081810360608301526114a8818a61141f565b90506114b760808301896113af565b81810360a08301526114c9818861141f565b905081810360c08301526114dd818761141f565b905081810360e08301526114f1818661141f565b9050818103610100830152611506818561141f565b9050611516610120830184611385565b9b9a5050505050505050505050565b6000602082019050818103600083015261153f818461141f565b905092915050565b7f4e487b7100000000000000000000000000000000000000000000000000000000600052601160045260246000fd5b600061158182611135565b91507fffffffffffffffffffffffffffffffffffffffffffffffffffffffffffffffff82036115b3576115b2611547565b5b600182019050919050565b7f4e487b7100000000000000000000000000000000000000000000000000000000600052602260045260246000fd5b6000600282049050600182168061160557607f821691505b602082108103611618576116176115be565b5b50919050565b60008190508160005260206000209050919050565b60006020601f8301049050919050565b600082821b905092915050565b6000600883026116807fffffffffffffffffffffffffffffffffffffffffffffffffffffffffffffffff82611643565b61168a8683611643565b95508019841693508086168417925050509392505050565b6000819050919050565b60006116c76116c26116bd84611135565b6116a2565b611135565b9050919050565b6000819050919050565b6116e1836116ac565b6116f56116ed826116ce565b848454611650565b825550505050565b600090565b61170a6116fd565b6117158184846116d8565b505050565b5b818110156117395761172e600082611702565b60018101905061171b565b5050565b601f82111561177e5761174f8161161e565b61175884611633565b81016020851015611767578190505b61177b61177385611633565b83018261171a565b50505b505050565b600082821c905092915050565b60006117a160001984600802611783565b1980831691505092915050565b60006117ba8383611790565b9150826002028217905092915050565b6117d3826113d9565b67ffffffffffffffff8111156117ec576117eb610ed5565b5b6117f682546115ed565b61180182828561173d565b600060209050601f8311600181146118345760008415611822578287015190505b61182c85826117ae565b865550611894565b601f1984166118428661161e565b60005b8281101561186a57848901518255600182019150602085019450602081019050611845565b868310156118875784890151611883601f891682611790565b8355505b6001600288020188555050505b505050505050565b600081905092915050565b60006118b2826113d9565b6118bc818561189c565b93506118cc8185602086016113f5565b80840191505092915050565b60006118e482846118a7565b915081905092915050565b600060c0820190508181036000830152611909818961141f565b9050818103602083015261191d818861141f565b905061192c60408301876113af565b818103606083015261193e818661141f565b90508181036080830152611952818561141f565b905081810360a0830152611966818461141f565b9050979650505050505050565b7f43726564656e7469616c20616c7265616479207265766f6b6564000000000000600082015250565b60006119a9601a836113e4565b91506119b482611973565b602082019050919050565b600060208201905081810360008301526119d88161199c565b905091905056fea26469706673582212204533b0019260f7b04683d4316d0f44760a93ca224a8772d9dd8500ae7040245164736f6c634300081b0033",
    "linkReferences": {},
    "deployedLinkReferences": {}
}