{
    "_format": "hh-sol-artifact-1",
    "contractName": "EthereumDIDRegistry",
    "sourceName": "contracts/EthereumDIDRegistry/EthereumDIDRegistry.sol",
    "abi": [
        {
            "anonymous": false,
            "inputs": [
                {
                    "indexed": true,
                    "internalType": "address",
                    "name": "identity",
                    "type": "address"
                },
                {
                    "indexed": false,
                    "internalType": "bytes32",
                    "name": "name",
                    "type": "bytes32"
                },
                {
                    "indexed": false,
                    "internalType": "bytes",
                    "name": "value",
                    "type": "bytes"
                },
                {
                    "indexed": false,
                    "internalType": "uint256",
                    "name": "validTo",
                    "type": "uint256"
                },
                {
                    "indexed": false,
                    "internalType": "uint256",
                    "name": "previousChange",
                    "type": "uint256"
                }
            ],
            "name": "DIDAttributeChanged",
            "type": "event"
        },
        {
            "anonymous": false,
            "inputs": [
                {
                    "indexed": true,
                    "internalType": "address",
                    "name": "identity",
                    "type": "address"
                },
                {
                    "indexed": false,
                    "internalType": "bytes32",
                    "name": "delegateType",
                    "type": "bytes32"
                },
                {
                    "indexed": false,
                    "internalType": "address",
                    "name": "delegate",
                    "type": "address"
                },
                {
                    "indexed": false,
                    "internalType": "uint256",
                    "name": "validTo",
                    "type": "uint256"
                },
                {
                    "indexed": false,
                    "internalType": "uint256",
                    "name": "previousChange",
                    "type": "uint256"
                }
            ],
            "name": "DIDDelegateChanged",
            "type": "event"
        },
        {
            "anonymous": false,
            "inputs": [
                {
                    "indexed": true,
                    "internalType": "address",
                    "name": "identity",
                    "type": "address"
                },
                {
                    "indexed": false,
                    "internalType": "string",
                    "name": "cid",
                    "type": "string"
                }
            ],
            "name": "DIDDocumentCIDUpdated",
            "type": "event"
        },
        {
            "anonymous": false,
            "inputs": [
                {
                    "indexed": true,
                    "internalType": "address",
                    "name": "identity",
                    "type": "address"
                },
                {
                    "indexed": false,
                    "internalType": "address",
                    "name": "owner",
                    "type": "address"
                },
                {
                    "indexed": false,
                    "internalType": "uint256",
                    "name": "previousChange",
                    "type": "uint256"
                }
            ],
            "name": "DIDOwnerChanged",
            "type": "event"
        },
        {
            "anonymous": false,
            "inputs": [
                {
                    "indexed": true,
                    "internalType": "address",
                    "name": "identity",
                    "type": "address"
                },
                {
                    "indexed": false,
                    "internalType": "string",
                    "name": "cid",
                    "type": "string"
                }
            ],
            "name": "ProfileCIDUpdated",
            "type": "event"
        },
        {
            "inputs": [
                {
                    "internalType": "address",
                    "name": "identity",
                    "type": "address"
                },
                {
                    "internalType": "bytes32",
                    "name": "delegateType",
                    "type": "bytes32"
                },
                {
                    "internalType": "address",
                    "name": "delegate",
                    "type": "address"
                },
                {
                    "internalType": "uint256",
                    "name": "validity",
                    "type": "uint256"
                }
            ],
            "name": "addDelegate",
            "outputs": [],
            "stateMutability": "nonpayable",
            "type": "function"
        },
        {
            "inputs": [
                {
                    "internalType": "address",
                    "name": "identity",
                    "type": "address"
                },
                {
                    "internalType": "uint8",
                    "name": "sigV",
                    "type": "uint8"
                },
                {
                    "internalType": "bytes32",
                    "name": "sigR",
                    "type": "bytes32"
                },
                {
                    "internalType": "bytes32",
                    "name": "sigS",
                    "type": "bytes32"
                },
                {
                    "internalType": "bytes32",
                    "name": "delegateType",
                    "type": "bytes32"
                },
                {
                    "internalType": "address",
                    "name": "delegate",
                    "type": "address"
                },
                {
                    "internalType": "uint256",
                    "name": "validity",
                    "type": "uint256"
                }
            ],
            "name": "addDelegateSigned",
            "outputs": [],
            "stateMutability": "nonpayable",
            "type": "function"
        },
        {
            "inputs": [
                {
                    "internalType": "address",
                    "name": "identity",
                    "type": "address"
                },
                {
                    "internalType": "address",
                    "name": "newOwner",
                    "type": "address"
                }
            ],
            "name": "changeOwner",
            "outputs": [],
            "stateMutability": "nonpayable",
            "type": "function"
        },
        {
            "inputs": [
                {
                    "internalType": "address",
                    "name": "identity",
                    "type": "address"
                },
                {
                    "internalType": "uint8",
                    "name": "sigV",
                    "type": "uint8"
                },
                {
                    "internalType": "bytes32",
                    "name": "sigR",
                    "type": "bytes32"
                },
                {
                    "internalType": "bytes32",
                    "name": "sigS",
                    "type": "bytes32"
                },
                {
                    "internalType": "address",
                    "name": "newOwner",
                    "type": "address"
                }
            ],
            "name": "changeOwnerSigned",
            "outputs": [],
            "stateMutability": "nonpayable",
            "type": "function"
        },
        {
            "inputs": [
                {
                    "internalType": "address",
                    "name": "",
                    "type": "address"
                }
            ],
            "name": "changed",
            "outputs": [
                {
                    "internalType": "uint256",
                    "name": "",
                    "type": "uint256"
                }
            ],
            "stateMutability": "view",
            "type": "function"
        },
        {
            "inputs": [
                {
                    "internalType": "address",
                    "name": "",
                    "type": "address"
                },
                {
                    "internalType": "bytes32",
                    "name": "",
                    "type": "bytes32"
                },
                {
                    "internalType": "address",
                    "name": "",
                    "type": "address"
                }
            ],
            "name": "delegates",
            "outputs": [
                {
                    "internalType": "uint256",
                    "name": "",
                    "type": "uint256"
                }
            ],
            "stateMutability": "view",
            "type": "function"
        },
        {
            "inputs": [
                {
                    "internalType": "address",
                    "name": "identity",
                    "type": "address"
                }
            ],
            "name": "getDIDDocumentCID",
            "outputs": [
                {
                    "internalType": "string",
                    "name": "",
                    "type": "string"
                }
            ],
            "stateMutability": "view",
            "type": "function"
        },
        {
            "inputs": [
                {
                    "internalType": "address",
                    "name": "identity",
                    "type": "address"
                }
            ],
            "name": "getProfileCID",
            "outputs": [
                {
                    "internalType": "string",
                    "name": "",
                    "type": "string"
                }
            ],
            "stateMutability": "view",
            "type": "function"
        },
        {
            "inputs": [
                {
                    "internalType": "address",
                    "name": "identity",
                    "type": "address"
                }
            ],
            "name": "identityOwner",
            "outputs": [
                {
                    "internalType": "address",
                    "name": "",
                    "type": "address"
                }
            ],
            "stateMutability": "view",
            "type": "function"
        },
        {
            "inputs": [
                {
                    "internalType": "address",
                    "name": "",
                    "type": "address"
                }
            ],
            "name": "nonce",
            "outputs": [
                {
                    "internalType": "uint256",
                    "name": "",
                    "type": "uint256"
                }
            ],
            "stateMutability": "view",
            "type": "function"
        },
        {
            "inputs": [
                {
                    "internalType": "address",
                    "name": "",
                    "type": "address"
                }
            ],
            "name": "owners",
            "outputs": [
                {
                    "internalType": "address",
                    "name": "",
                    "type": "address"
                }
            ],
            "stateMutability": "view",
            "type": "function"
        },
        {
            "inputs": [
                {
                    "internalType": "address",
                    "name": "identity",
                    "type": "address"
                },
                {
                    "internalType": "bytes32",
                    "name": "name",
                    "type": "bytes32"
                },
                {
                    "internalType": "bytes",
                    "name": "value",
                    "type": "bytes"
                }
            ],
            "name": "revokeAttribute",
            "outputs": [],
            "stateMutability": "nonpayable",
            "type": "function"
        },
        {
            "inputs": [
                {
                    "internalType": "address",
                    "name": "identity",
                    "type": "address"
                },
                {
                    "internalType": "uint8",
                    "name": "sigV",
                    "type": "uint8"
                },
                {
                    "internalType": "bytes32",
                    "name": "sigR",
                    "type": "bytes32"
                },
                {
                    "internalType": "bytes32",
                    "name": "sigS",
                    "type": "bytes32"
                },
                {
                    "internalType": "bytes32",
                    "name": "name",
                    "type": "bytes32"
                },
                {
                    "internalType": "bytes",
                    "name": "value",
                    "type": "bytes"
                }
            ],
            "name": "revokeAttributeSigned",
            "outputs": [],
            "stateMutability": "nonpayable",
            "type": "function"
        },
        {
            "inputs": [
                {
                    "internalType": "address",
                    "name": "identity",
                    "type": "address"
                },
                {
                    "internalType": "bytes32",
                    "name": "delegateType",
                    "type": "bytes32"
                },
                {
                    "internalType": "address",
                    "name": "delegate",
                    "type": "address"
                }
            ],
            "name": "revokeDelegate",
            "outputs": [],
            "stateMutability": "nonpayable",
            "type": "function"
        },
        {
            "inputs": [
                {
                    "internalType": "address",
                    "name": "identity",
                    "type": "address"
                },
                {
                    "internalType": "uint8",
                    "name": "sigV",
                    "type": "uint8"
                },
                {
                    "internalType": "bytes32",
                    "name": "sigR",
                    "type": "bytes32"
                },
                {
                    "internalType": "bytes32",
                    "name": "sigS",
                    "type": "bytes32"
                },
                {
                    "internalType": "bytes32",
                    "name": "delegateType",
                    "type": "bytes32"
                },
                {
                    "internalType": "address",
                    "name": "delegate",
                    "type": "address"
                }
            ],
            "name": "revokeDelegateSigned",
            "outputs": [],
            "stateMutability": "nonpayable",
            "type": "function"
        },
        {
            "inputs": [
                {
                    "internalType": "address",
                    "name": "identity",
                    "type": "address"
                },
                {
                    "internalType": "bytes32",
                    "name": "name",
                    "type": "bytes32"
                },
                {
                    "internalType": "bytes",
                    "name": "value",
                    "type": "bytes"
                },
                {
                    "internalType": "uint256",
                    "name": "validity",
                    "type": "uint256"
                }
            ],
            "name": "setAttribute",
            "outputs": [],
            "stateMutability": "nonpayable",
            "type": "function"
        },
        {
            "inputs": [
                {
                    "internalType": "address",
                    "name": "identity",
                    "type": "address"
                },
                {
                    "internalType": "uint8",
                    "name": "sigV",
                    "type": "uint8"
                },
                {
                    "internalType": "bytes32",
                    "name": "sigR",
                    "type": "bytes32"
                },
                {
                    "internalType": "bytes32",
                    "name": "sigS",
                    "type": "bytes32"
                },
                {
                    "internalType": "bytes32",
                    "name": "name",
                    "type": "bytes32"
                },
                {
                    "internalType": "bytes",
                    "name": "value",
                    "type": "bytes"
                },
                {
                    "internalType": "uint256",
                    "name": "validity",
                    "type": "uint256"
                }
            ],
            "name": "setAttributeSigned",
            "outputs": [],
            "stateMutability": "nonpayable",
            "type": "function"
        },
        {
            "inputs": [
                {
                    "internalType": "address",
                    "name": "identity",
                    "type": "address"
                },
                {
                    "internalType": "string",
                    "name": "cid",
                    "type": "string"
                }
            ],
            "name": "setDIDDocumentCID",
            "outputs": [],
            "stateMutability": "nonpayable",
            "type": "function"
        },
        {
            "inputs": [
                {
                    "internalType": "address",
                    "name": "identity",
                    "type": "address"
                },
                {
                    "internalType": "string",
                    "name": "cid",
                    "type": "string"
                }
            ],
            "name": "setProfileCID",
            "outputs": [],
            "stateMutability": "nonpayable",
            "type": "function"
        },
        {
            "inputs": [
                {
                    "internalType": "address",
                    "name": "identity",
                    "type": "address"
                },
                {
                    "internalType": "bytes32",
                    "name": "delegateType",
                    "type": "bytes32"
                },
                {
                    "internalType": "address",
                    "name": "delegate",
                    "type": "address"
                }
            ],
            "name": "validDelegate",
            "outputs": [
                {
                    "internalType": "bool",
                    "name": "",
                    "type": "bool"
                }
            ],
            "stateMutability": "view",
            "type": "function"
        }
    ],
    "bytecode": "0x6080604052348015600f57600080fd5b50612d798061001f6000396000f3fe608060405234801561001057600080fd5b506004361061012b5760003560e01c806380b29f7c116100ad578063de8b05be11610071578063de8b05be1461034c578063e3095e451461037c578063e476af5c14610398578063f00d4b5d146103b4578063f96d0f9f146103d05761012b565b806380b29f7c146102ac5780638733d4e8146102c857806393072684146102f85780639c2c1b2b14610314578063a7068d66146103305761012b565b806335118de2116100f457806335118de2146101e457806346a59e5f14610214578063622b2a3c1461023057806370ae92d2146102605780637ad4b0a4146102905761012b565b8062c023da14610130578063022914a71461014c5780630d44625b1461017c578063123b5e98146101ac578063240cf1fa146101c8575b600080fd5b61014a60048036038101906101459190611951565b610400565b005b610166600480360381019061016191906119c0565b610411565b60405161017391906119fc565b60405180910390f35b61019660048036038101906101919190611a17565b610444565b6040516101a39190611a83565b60405180910390f35b6101c660048036038101906101c19190611b03565b610476565b005b6101e260048036038101906101dd9190611bc1565b610521565b005b6101fe60048036038101906101f991906119c0565b6105c4565b60405161020b9190611cbb565b60405180910390f35b61022e60048036038101906102299190611d7e565b610695565b005b61024a60048036038101906102459190611a17565b6107ae565b6040516102579190611df5565b60405180910390f35b61027a600480360381019061027591906119c0565b610874565b6040516102879190611a83565b60405180910390f35b6102aa60048036038101906102a59190611e10565b61088c565b005b6102c660048036038101906102c19190611a17565b61089f565b005b6102e260048036038101906102dd91906119c0565b6108b0565b6040516102ef91906119fc565b60405180910390f35b610312600480360381019061030d9190611e93565b61095b565b005b61032e60048036038101906103299190611f20565b610a02565b005b61034a60048036038101906103459190611fc2565b610aad565b005b610366600480360381019061036191906119c0565b610ac0565b6040516103739190611cbb565b60405180910390f35b61039660048036038101906103919190611d7e565b610b91565b005b6103b260048036038101906103ad9190612029565b610caa565b005b6103ce60048036038101906103c991906120d2565b610d51565b005b6103ea60048036038101906103e591906119c0565b610d60565b6040516103f79190611a83565b60405180910390f35b61040c83338484610d78565b505050565b60006020528060005260406000206000915054906101000a900473ffffffffffffffffffffffffffffffffffffffff1681565b600160205282600052604060002060205281600052604060002060205280600052604060002060009250925050505481565b6000601960f81b600060f81b30600360006104908d6108b0565b73ffffffffffffffffffffffffffffffffffffffff1673ffffffffffffffffffffffffffffffffffffffff168152602001908152602001600020548b8888886040516020016104e69897969594939291906122ee565b6040516020818303038152906040528051906020012090506105178861050f8a8a8a8a87610ed0565b868686610ffc565b5050505050505050565b6000601960f81b600060f81b306003600061053b8b6108b0565b73ffffffffffffffffffffffffffffffffffffffff1673ffffffffffffffffffffffffffffffffffffffff16815260200190815260200160002054898660405160200161058d969594939291906123d3565b6040516020818303038152906040528051906020012090506105bc866105b68888888887610ed0565b8461115f565b505050505050565b6060600560008373ffffffffffffffffffffffffffffffffffffffff1673ffffffffffffffffffffffffffffffffffffffff16815260200190815260200160002080546106109061247d565b80601f016020809104026020016040519081016040528092919081815260200182805461063c9061247d565b80156106895780601f1061065e57610100808354040283529160200191610689565b820191906000526020600020905b81548152906001019060200180831161066c57829003601f168201915b50505050509050919050565b81336106a0826108b0565b73ffffffffffffffffffffffffffffffffffffffff168173ffffffffffffffffffffffffffffffffffffffff161461070d576040517f08c379a0000000000000000000000000000000000000000000000000000000008152600401610704906124fa565b60405180910390fd5b82600460008673ffffffffffffffffffffffffffffffffffffffff1673ffffffffffffffffffffffffffffffffffffffff168152602001908152602001600020908161075991906126bc565b508373ffffffffffffffffffffffffffffffffffffffff167fdfb356fd3336224c49cebfc4c41e3dde8125aad9a1afab6a91b898e449f41c70846040516107a09190611cbb565b60405180910390a250505050565b600080600160008673ffffffffffffffffffffffffffffffffffffffff1673ffffffffffffffffffffffffffffffffffffffff168152602001908152602001600020600085604051602001610803919061279d565b60405160208183030381529060405280519060200120815260200190815260200160002060008473ffffffffffffffffffffffffffffffffffffffff1673ffffffffffffffffffffffffffffffffffffffff1681526020019081526020016000205490504281119150509392505050565b60036020528060005260406000206000915090505481565b6108998433858585610ffc565b50505050565b6108ab8333848461132e565b505050565b6000806000808473ffffffffffffffffffffffffffffffffffffffff1673ffffffffffffffffffffffffffffffffffffffff16815260200190815260200160002060009054906101000a900473ffffffffffffffffffffffffffffffffffffffff169050600073ffffffffffffffffffffffffffffffffffffffff168173ffffffffffffffffffffffffffffffffffffffff16146109515780915050610956565b829150505b919050565b6000601960f81b600060f81b30600360006109758c6108b0565b73ffffffffffffffffffffffffffffffffffffffff1673ffffffffffffffffffffffffffffffffffffffff168152602001908152602001600020548a87876040516020016109c99796959493929190612804565b6040516020818303038152906040528051906020012090506109f9876109f28989898987610ed0565b858561132e565b50505050505050565b6000601960f81b600060f81b3060036000610a1c8d6108b0565b73ffffffffffffffffffffffffffffffffffffffff1673ffffffffffffffffffffffffffffffffffffffff168152602001908152602001600020548b888888604051602001610a729897969594939291906128dc565b604051602081830303815290604052805190602001209050610aa388610a9b8a8a8a8a87610ed0565b86868661153d565b5050505050505050565b610aba843385858561153d565b50505050565b6060600460008373ffffffffffffffffffffffffffffffffffffffff1673ffffffffffffffffffffffffffffffffffffffff1681526020019081526020016000208054610b0c9061247d565b80601f0160208091040260200160405190810160405280929190818152602001828054610b389061247d565b8015610b855780601f10610b5a57610100808354040283529160200191610b85565b820191906000526020600020905b815481529060010190602001808311610b6857829003601f168201915b50505050509050919050565b8133610b9c826108b0565b73ffffffffffffffffffffffffffffffffffffffff168173ffffffffffffffffffffffffffffffffffffffff1614610c09576040517f08c379a0000000000000000000000000000000000000000000000000000000008152600401610c00906124fa565b60405180910390fd5b82600560008673ffffffffffffffffffffffffffffffffffffffff1673ffffffffffffffffffffffffffffffffffffffff1681526020019081526020016000209081610c5591906126bc565b508373ffffffffffffffffffffffffffffffffffffffff167f29ee3d96f0a07374c7d8a187b1d3b3c50acd35a617c7d387cafac1e0836ddd5784604051610c9c9190611cbb565b60405180910390a250505050565b6000601960f81b600060f81b3060036000610cc48c6108b0565b73ffffffffffffffffffffffffffffffffffffffff1673ffffffffffffffffffffffffffffffffffffffff168152602001908152602001600020548a8787604051602001610d1897969594939291906129c5565b604051602081830303815290604052805190602001209050610d4887610d418989898987610ed0565b8585610d78565b50505050505050565b610d5c82338361115f565b5050565b60026020528060005260406000206000915090505481565b8383610d83826108b0565b73ffffffffffffffffffffffffffffffffffffffff168173ffffffffffffffffffffffffffffffffffffffff1614610df0576040517f08c379a0000000000000000000000000000000000000000000000000000000008152600401610de7906124fa565b60405180910390fd5b8573ffffffffffffffffffffffffffffffffffffffff167f18ab6b2ae3d64306c00ce663125f2bd680e441a098de1635bd7ad8b0d44965e485856000600260008c73ffffffffffffffffffffffffffffffffffffffff1673ffffffffffffffffffffffffffffffffffffffff16815260200190815260200160002054604051610e7c9493929190612ad2565b60405180910390a243600260008873ffffffffffffffffffffffffffffffffffffffff1673ffffffffffffffffffffffffffffffffffffffff16815260200190815260200160002081905550505050505050565b60008060018387878760405160008152602001604052604051610ef69493929190612b2d565b6020604051602081039080840390855afa158015610f18573d6000803e3d6000fd5b505050602060405103519050610f2d876108b0565b73ffffffffffffffffffffffffffffffffffffffff168173ffffffffffffffffffffffffffffffffffffffff1614610f9a576040517f08c379a0000000000000000000000000000000000000000000000000000000008152600401610f9190612bbe565b60405180910390fd5b600360008273ffffffffffffffffffffffffffffffffffffffff1673ffffffffffffffffffffffffffffffffffffffff1681526020019081526020016000206000815480929190610fea90612c0d565b91905055508091505095945050505050565b8484611007826108b0565b73ffffffffffffffffffffffffffffffffffffffff168173ffffffffffffffffffffffffffffffffffffffff1614611074576040517f08c379a000000000000000000000000000000000000000000000000000000000815260040161106b906124fa565b60405180910390fd5b8673ffffffffffffffffffffffffffffffffffffffff167f18ab6b2ae3d64306c00ce663125f2bd680e441a098de1635bd7ad8b0d44965e4868686426110ba9190612c55565b600260008d73ffffffffffffffffffffffffffffffffffffffff1673ffffffffffffffffffffffffffffffffffffffff1681526020019081526020016000205460405161110a9493929190612c89565b60405180910390a243600260008973ffffffffffffffffffffffffffffffffffffffff1673ffffffffffffffffffffffffffffffffffffffff1681526020019081526020016000208190555050505050505050565b828261116a826108b0565b73ffffffffffffffffffffffffffffffffffffffff168173ffffffffffffffffffffffffffffffffffffffff16146111d7576040517f08c379a00000000000000000000000000000000000000000000000000000000081526004016111ce906124fa565b60405180910390fd5b826000808773ffffffffffffffffffffffffffffffffffffffff1673ffffffffffffffffffffffffffffffffffffffff16815260200190815260200160002060006101000a81548173ffffffffffffffffffffffffffffffffffffffff021916908373ffffffffffffffffffffffffffffffffffffffff1602179055508473ffffffffffffffffffffffffffffffffffffffff167f38a5a6e68f30ed1ab45860a4afb34bcb2fc00f22ca462d249b8a8d40cda6f7a384600260008973ffffffffffffffffffffffffffffffffffffffff1673ffffffffffffffffffffffffffffffffffffffff168152602001908152602001600020546040516112db929190612cd5565b60405180910390a243600260008773ffffffffffffffffffffffffffffffffffffffff1673ffffffffffffffffffffffffffffffffffffffff168152602001908152602001600020819055505050505050565b8383611339826108b0565b73ffffffffffffffffffffffffffffffffffffffff168173ffffffffffffffffffffffffffffffffffffffff16146113a6576040517f08c379a000000000000000000000000000000000000000000000000000000000815260040161139d906124fa565b60405180910390fd5b42600160008873ffffffffffffffffffffffffffffffffffffffff1673ffffffffffffffffffffffffffffffffffffffff1681526020019081526020016000206000866040516020016113f9919061279d565b60405160208183030381529060405280519060200120815260200190815260200160002060008573ffffffffffffffffffffffffffffffffffffffff1673ffffffffffffffffffffffffffffffffffffffff168152602001908152602001600020819055508573ffffffffffffffffffffffffffffffffffffffff167f5a5084339536bcab65f20799fcc58724588145ca054bd2be626174b27ba156f7858542600260008c73ffffffffffffffffffffffffffffffffffffffff1673ffffffffffffffffffffffffffffffffffffffff168152602001908152602001600020546040516114e99493929190612cfe565b60405180910390a243600260008873ffffffffffffffffffffffffffffffffffffffff1673ffffffffffffffffffffffffffffffffffffffff16815260200190815260200160002081905550505050505050565b8484611548826108b0565b73ffffffffffffffffffffffffffffffffffffffff168173ffffffffffffffffffffffffffffffffffffffff16146115b5576040517f08c379a00000000000000000000000000000000000000000000000000000000081526004016115ac906124fa565b60405180910390fd5b82426115c19190612c55565b600160008973ffffffffffffffffffffffffffffffffffffffff1673ffffffffffffffffffffffffffffffffffffffff168152602001908152602001600020600087604051602001611613919061279d565b60405160208183030381529060405280519060200120815260200190815260200160002060008673ffffffffffffffffffffffffffffffffffffffff1673ffffffffffffffffffffffffffffffffffffffff168152602001908152602001600020819055508673ffffffffffffffffffffffffffffffffffffffff167f5a5084339536bcab65f20799fcc58724588145ca054bd2be626174b27ba156f7868686426116be9190612c55565b600260008d73ffffffffffffffffffffffffffffffffffffffff1673ffffffffffffffffffffffffffffffffffffffff1681526020019081526020016000205460405161170e9493929190612cfe565b60405180910390a243600260008973ffffffffffffffffffffffffffffffffffffffff1673ffffffffffffffffffffffffffffffffffffffff1681526020019081526020016000208190555050505050505050565b6000604051905090565b600080fd5b600080fd5b600073ffffffffffffffffffffffffffffffffffffffff82169050919050565b60006117a282611777565b9050919050565b6117b281611797565b81146117bd57600080fd5b50565b6000813590506117cf816117a9565b92915050565b6000819050919050565b6117e8816117d5565b81146117f357600080fd5b50565b600081359050611805816117df565b92915050565b600080fd5b600080fd5b6000601f19601f8301169050919050565b7f4e487b7100000000000000000000000000000000000000000000000000000000600052604160045260246000fd5b61185e82611815565b810181811067ffffffffffffffff8211171561187d5761187c611826565b5b80604052505050565b6000611890611763565b905061189c8282611855565b919050565b600067ffffffffffffffff8211156118bc576118bb611826565b5b6118c582611815565b9050602081019050919050565b82818337600083830152505050565b60006118f46118ef846118a1565b611886565b9050828152602081018484840111156119105761190f611810565b5b61191b8482856118d2565b509392505050565b600082601f8301126119385761193761180b565b5b81356119488482602086016118e1565b91505092915050565b60008060006060848603121561196a5761196961176d565b5b6000611978868287016117c0565b9350506020611989868287016117f6565b925050604084013567ffffffffffffffff8111156119aa576119a9611772565b5b6119b686828701611923565b9150509250925092565b6000602082840312156119d6576119d561176d565b5b60006119e4848285016117c0565b91505092915050565b6119f681611797565b82525050565b6000602082019050611a1160008301846119ed565b92915050565b600080600060608486031215611a3057611a2f61176d565b5b6000611a3e868287016117c0565b9350506020611a4f868287016117f6565b9250506040611a60868287016117c0565b9150509250925092565b6000819050919050565b611a7d81611a6a565b82525050565b6000602082019050611a986000830184611a74565b92915050565b600060ff82169050919050565b611ab481611a9e565b8114611abf57600080fd5b50565b600081359050611ad181611aab565b92915050565b611ae081611a6a565b8114611aeb57600080fd5b50565b600081359050611afd81611ad7565b92915050565b600080600080600080600060e0888a031215611b2257611b2161176d565b5b6000611b308a828b016117c0565b9750506020611b418a828b01611ac2565b9650506040611b528a828b016117f6565b9550506060611b638a828b016117f6565b9450506080611b748a828b016117f6565b93505060a088013567ffffffffffffffff811115611b9557611b94611772565b5b611ba18a828b01611923565b92505060c0611bb28a828b01611aee565b91505092959891949750929550565b600080600080600060a08688031215611bdd57611bdc61176d565b5b6000611beb888289016117c0565b9550506020611bfc88828901611ac2565b9450506040611c0d888289016117f6565b9350506060611c1e888289016117f6565b9250506080611c2f888289016117c0565b9150509295509295909350565b600081519050919050565b600082825260208201905092915050565b60005b83811015611c76578082015181840152602081019050611c5b565b60008484015250505050565b6000611c8d82611c3c565b611c978185611c47565b9350611ca7818560208601611c58565b611cb081611815565b840191505092915050565b60006020820190508181036000830152611cd58184611c82565b905092915050565b600067ffffffffffffffff821115611cf857611cf7611826565b5b611d0182611815565b9050602081019050919050565b6000611d21611d1c84611cdd565b611886565b905082815260208101848484011115611d3d57611d3c611810565b5b611d488482856118d2565b509392505050565b600082601f830112611d6557611d6461180b565b5b8135611d75848260208601611d0e565b91505092915050565b60008060408385031215611d9557611d9461176d565b5b6000611da3858286016117c0565b925050602083013567ffffffffffffffff811115611dc457611dc3611772565b5b611dd085828601611d50565b9150509250929050565b60008115159050919050565b611def81611dda565b82525050565b6000602082019050611e0a6000830184611de6565b92915050565b60008060008060808587031215611e2a57611e2961176d565b5b6000611e38878288016117c0565b9450506020611e49878288016117f6565b935050604085013567ffffffffffffffff811115611e6a57611e69611772565b5b611e7687828801611923565b9250506060611e8787828801611aee565b91505092959194509250565b60008060008060008060c08789031215611eb057611eaf61176d565b5b6000611ebe89828a016117c0565b9650506020611ecf89828a01611ac2565b9550506040611ee089828a016117f6565b9450506060611ef189828a016117f6565b9350506080611f0289828a016117f6565b92505060a0611f1389828a016117c0565b9150509295509295509295565b600080600080600080600060e0888a031215611f3f57611f3e61176d565b5b6000611f4d8a828b016117c0565b9750506020611f5e8a828b01611ac2565b9650506040611f6f8a828b016117f6565b9550506060611f808a828b016117f6565b9450506080611f918a828b016117f6565b93505060a0611fa28a828b016117c0565b92505060c0611fb38a828b01611aee565b91505092959891949750929550565b60008060008060808587031215611fdc57611fdb61176d565b5b6000611fea878288016117c0565b9450506020611ffb878288016117f6565b935050604061200c878288016117c0565b925050606061201d87828801611aee565b91505092959194509250565b60008060008060008060c087890312156120465761204561176d565b5b600061205489828a016117c0565b965050602061206589828a01611ac2565b955050604061207689828a016117f6565b945050606061208789828a016117f6565b935050608061209889828a016117f6565b92505060a087013567ffffffffffffffff8111156120b9576120b8611772565b5b6120c589828a01611923565b9150509295509295509295565b600080604083850312156120e9576120e861176d565b5b60006120f7858286016117c0565b9250506020612108858286016117c0565b9150509250929050565b60007fff0000000000000000000000000000000000000000000000000000000000000082169050919050565b6000819050919050565b61215961215482612112565b61213e565b82525050565b6000819050919050565b600061218461217f61217a84611777565b61215f565b611777565b9050919050565b600061219682612169565b9050919050565b60006121a88261218b565b9050919050565b60008160601b9050919050565b60006121c7826121af565b9050919050565b60006121d9826121bc565b9050919050565b6121f16121ec8261219d565b6121ce565b82525050565b6000819050919050565b61221261220d82611a6a565b6121f7565b82525050565b61222961222482611797565b6121ce565b82525050565b600081905092915050565b7f7365744174747269627574650000000000000000000000000000000000000000600082015250565b6000612270600c8361222f565b915061227b8261223a565b600c82019050919050565b6000819050919050565b6122a161229c826117d5565b612286565b82525050565b600081519050919050565b600081905092915050565b60006122c8826122a7565b6122d281856122b2565b93506122e2818560208601611c58565b80840191505092915050565b60006122fa828b612148565b60018201915061230a828a612148565b60018201915061231a82896121e0565b60148201915061232a8288612201565b60208201915061233a8287612218565b60148201915061234982612263565b91506123558286612290565b60208201915061236582856122bd565b91506123718284612201565b6020820191508190509998505050505050505050565b7f6368616e67654f776e6572000000000000000000000000000000000000000000600082015250565b60006123bd600b8361222f565b91506123c882612387565b600b82019050919050565b60006123df8289612148565b6001820191506123ef8288612148565b6001820191506123ff82876121e0565b60148201915061240f8286612201565b60208201915061241f8285612218565b60148201915061242e826123b0565b915061243a8284612218565b601482019150819050979650505050505050565b7f4e487b7100000000000000000000000000000000000000000000000000000000600052602260045260246000fd5b6000600282049050600182168061249557607f821691505b6020821081036124a8576124a761244e565b5b50919050565b7f6261645f6163746f720000000000000000000000000000000000000000000000600082015250565b60006124e4600983611c47565b91506124ef826124ae565b602082019050919050565b60006020820190508181036000830152612513816124d7565b9050919050565b60008190508160005260206000209050919050565b60006020601f8301049050919050565b600082821b905092915050565b60006008830261257c7fffffffffffffffffffffffffffffffffffffffffffffffffffffffffffffffff8261253f565b612586868361253f565b95508019841693508086168417925050509392505050565b60006125b96125b46125af84611a6a565b61215f565b611a6a565b9050919050565b6000819050919050565b6125d38361259e565b6125e76125df826125c0565b84845461254c565b825550505050565b600090565b6125fc6125ef565b6126078184846125ca565b505050565b5b8181101561262b576126206000826125f4565b60018101905061260d565b5050565b601f821115612670576126418161251a565b61264a8461252f565b81016020851015612659578190505b61266d6126658561252f565b83018261260c565b50505b505050565b600082821c905092915050565b600061269360001984600802612675565b1980831691505092915050565b60006126ac8383612682565b9150826002028217905092915050565b6126c582611c3c565b67ffffffffffffffff8111156126de576126dd611826565b5b6126e8825461247d565b6126f382828561262f565b600060209050601f8311600181146127265760008415612714578287015190505b61271e85826126a0565b865550612786565b601f1984166127348661251a565b60005b8281101561275c57848901518255600182019150602085019450602081019050612737565b868310156127795784890151612775601f891682612682565b8355505b6001600288020188555050505b505050505050565b612797816117d5565b82525050565b60006020820190506127b2600083018461278e565b92915050565b7f7265766f6b6544656c6567617465000000000000000000000000000000000000600082015250565b60006127ee600e8361222f565b91506127f9826127b8565b600e82019050919050565b6000612810828a612148565b6001820191506128208289612148565b60018201915061283082886121e0565b6014820191506128408287612201565b6020820191506128508286612218565b60148201915061285f826127e1565b915061286b8285612290565b60208201915061287b8284612218565b60148201915081905098975050505050505050565b7f61646444656c6567617465000000000000000000000000000000000000000000600082015250565b60006128c6600b8361222f565b91506128d182612890565b600b82019050919050565b60006128e8828b612148565b6001820191506128f8828a612148565b60018201915061290882896121e0565b6014820191506129188288612201565b6020820191506129288287612218565b601482019150612937826128b9565b91506129438286612290565b6020820191506129538285612218565b6014820191506129638284612201565b6020820191508190509998505050505050505050565b7f7265766f6b654174747269627574650000000000000000000000000000000000600082015250565b60006129af600f8361222f565b91506129ba82612979565b600f82019050919050565b60006129d1828a612148565b6001820191506129e18289612148565b6001820191506129f182886121e0565b601482019150612a018287612201565b602082019150612a118286612218565b601482019150612a20826129a2565b9150612a2c8285612290565b602082019150612a3c82846122bd565b915081905098975050505050505050565b600082825260208201905092915050565b6000612a69826122a7565b612a738185612a4d565b9350612a83818560208601611c58565b612a8c81611815565b840191505092915050565b6000819050919050565b6000612abc612ab7612ab284612a97565b61215f565b611a6a565b9050919050565b612acc81612aa1565b82525050565b6000608082019050612ae7600083018761278e565b8181036020830152612af98186612a5e565b9050612b086040830185612ac3565b612b156060830184611a74565b95945050505050565b612b2781611a9e565b82525050565b6000608082019050612b42600083018761278e565b612b4f6020830186612b1e565b612b5c604083018561278e565b612b69606083018461278e565b95945050505050565b7f6261645f7369676e617475726500000000000000000000000000000000000000600082015250565b6000612ba8600d83611c47565b9150612bb382612b72565b602082019050919050565b60006020820190508181036000830152612bd781612b9b565b9050919050565b7f4e487b7100000000000000000000000000000000000000000000000000000000600052601160045260246000fd5b6000612c1882611a6a565b91507fffffffffffffffffffffffffffffffffffffffffffffffffffffffffffffffff8203612c4a57612c49612bde565b5b600182019050919050565b6000612c6082611a6a565b9150612c6b83611a6a565b9250828201905080821115612c8357612c82612bde565b5b92915050565b6000608082019050612c9e600083018761278e565b8181036020830152612cb08186612a5e565b9050612cbf6040830185611a74565b612ccc6060830184611a74565b95945050505050565b6000604082019050612cea60008301856119ed565b612cf76020830184611a74565b9392505050565b6000608082019050612d13600083018761278e565b612d2060208301866119ed565b612d2d6040830185611a74565b612d3a6060830184611a74565b9594505050505056fea2646970667358221220f01083d95cea4ddb3436696e79e4b6cb427ce6cdfb2c967527d6ae27d8c2eaaa64736f6c634300081b0033",
    "linkReferences": {},
    "deployedLinkReferences": {}
}